{
  "_format": "hh-sol-artifact-1",
  "contractName": "ProductRegistry",
  "sourceName": "contracts/ProductRegistry.sol",
  "abi": [
    {
      "inputs": [],
      "stateMutability": "nonpayable",
      "type": "constructor"
    },
    {
      "anonymous": false,
      "inputs": [
        {
          "indexed": false,
          "internalType": "address",
          "name": "manufacturerAddress",
          "type": "address"
        },
        {
          "indexed": false,
          "internalType": "bool",
          "name": "status",
          "type": "bool"
        }
      ],
      "name": "ManufacturerFlagged",
      "type": "event"
    },
    {
      "anonymous": false,
      "inputs": [
        {
          "indexed": false,
          "internalType": "address",
          "name": "manufacturerAddress",
          "type": "address"
        },
        {
          "indexed": false,
          "internalType": "string",
          "name": "name",
          "type": "string"
        }
      ],
      "name": "ManufacturerRegistered",
      "type": "event"
    },
    {
      "anonymous": false,
      "inputs": [
        {
          "indexed": false,
          "internalType": "address",
          "name": "manufacturerAddress",
          "type": "address"
        },
        {
          "indexed": false,
          "internalType": "bool",
          "name": "status",
          "type": "bool"
        }
      ],
      "name": "ManufacturerVerified",
      "type": "event"
    },
    {
      "anonymous": false,
      "inputs": [
        {
          "indexed": false,
          "internalType": "string",
          "name": "uniqueProductId",
          "type": "string"
        },
        {
          "indexed": false,
          "internalType": "string",
          "name": "name",
          "type": "string"
        },
        {
          "indexed": false,
          "internalType": "address",
          "name": "manufacturerAddress",
          "type": "address"
        }
      ],
      "name": "ProductRegistered",
      "type": "event"
    },
    {
      "anonymous": false,
      "inputs": [
        {
          "indexed": false,
          "internalType": "string",
          "name": "uniqueProductId",
          "type": "string"
        }
      ],
      "name": "ProductScanned",
      "type": "event"
    },
    {
      "inputs": [],
      "name": "admin",
      "outputs": [
        {
          "internalType": "address",
          "name": "",
          "type": "address"
        }
      ],
      "stateMutability": "view",
      "type": "function"
    },
    {
      "inputs": [
        {
          "internalType": "uint256",
          "name": "",
          "type": "uint256"
        }
      ],
      "name": "allManufacturers",
      "outputs": [
        {
          "internalType": "address",
          "name": "",
          "type": "address"
        }
      ],
      "stateMutability": "view",
      "type": "function"
    },
    {
      "inputs": [
        {
          "internalType": "uint256",
          "name": "",
          "type": "uint256"
        }
      ],
      "name": "allProductIds",
      "outputs": [
        {
          "internalType": "string",
          "name": "",
          "type": "string"
        }
      ],
      "stateMutability": "view",
      "type": "function"
    },
    {
      "inputs": [
        {
          "internalType": "address",
          "name": "manufacturerAddr",
          "type": "address"
        },
        {
          "internalType": "bool",
          "name": "status",
          "type": "bool"
        }
      ],
      "name": "flagManufacturer",
      "outputs": [],
      "stateMutability": "nonpayable",
      "type": "function"
    },
    {
      "inputs": [],
      "name": "getAllManufacturers",
      "outputs": [
        {
          "internalType": "address[]",
          "name": "",
          "type": "address[]"
        }
      ],
      "stateMutability": "view",
      "type": "function"
    },
    {
      "inputs": [],
      "name": "getAllProducts",
      "outputs": [
        {
          "components": [
            {
              "components": [
                {
                  "internalType": "string",
                  "name": "name",
                  "type": "string"
                },
                {
                  "internalType": "string",
                  "name": "description",
                  "type": "string"
                },
                {
                  "internalType": "string",
                  "name": "category",
                  "type": "string"
                },
                {
                  "internalType": "string",
                  "name": "batchNumber",
                  "type": "string"
                },
                {
                  "internalType": "string",
                  "name": "serialNumber",
                  "type": "string"
                },
                {
                  "internalType": "string",
                  "name": "uniqueProductId",
                  "type": "string"
                },
                {
                  "internalType": "string",
                  "name": "manufacturingDate",
                  "type": "string"
                },
                {
                  "internalType": "string",
                  "name": "expiryDate",
                  "type": "string"
                }
              ],
              "internalType": "struct ProductRegistry.ProductDetails",
              "name": "details",
              "type": "tuple"
            },
            {
              "internalType": "address",
              "name": "manufacturerAddress",
              "type": "address"
            },
            {
              "internalType": "bool",
              "name": "isRegistered",
              "type": "bool"
            },
            {
              "internalType": "uint256",
              "name": "scanCount",
              "type": "uint256"
            }
          ],
          "internalType": "struct ProductRegistry.Product[]",
          "name": "",
          "type": "tuple[]"
        }
      ],
      "stateMutability": "view",
      "type": "function"
    },
    {
      "inputs": [
        {
          "internalType": "address",
          "name": "manufacturer",
          "type": "address"
        }
      ],
      "name": "getManufacturerProducts",
      "outputs": [
        {
          "internalType": "string[]",
          "name": "",
          "type": "string[]"
        }
      ],
      "stateMutability": "view",
      "type": "function"
    },
    {
      "inputs": [],
      "name": "getRequestedManufacturers",
      "outputs": [
        {
          "internalType": "address[]",
          "name": "",
          "type": "address[]"
        }
      ],
      "stateMutability": "view",
      "type": "function"
    },
    {
      "inputs": [],
      "name": "getStats",
      "outputs": [
        {
          "internalType": "uint256",
          "name": "totalManufacturers",
          "type": "uint256"
        },
        {
          "internalType": "uint256",
          "name": "verifiedCount",
          "type": "uint256"
        },
        {
          "internalType": "uint256",
          "name": "flaggedCount",
          "type": "uint256"
        },
        {
          "internalType": "uint256",
          "name": "totalProductsScanned",
          "type": "uint256"
        }
      ],
      "stateMutability": "view",
      "type": "function"
    },
    {
      "inputs": [
        {
          "internalType": "address",
          "name": "",
          "type": "address"
        }
      ],
      "name": "manufacturers",
      "outputs": [
        {
          "internalType": "string",
          "name": "name",
          "type": "string"
        },
        {
          "internalType": "string",
          "name": "manufacturingLocation",
          "type": "string"
        },
        {
          "internalType": "string",
          "name": "email",
          "type": "string"
        },
        {
          "internalType": "string",
          "name": "phone",
          "type": "string"
        },
        {
          "internalType": "string",
          "name": "facilityAddress",
          "type": "string"
        },
        {
          "internalType": "uint256",
          "name": "timestamp",
          "type": "uint256"
        },
        {
          "internalType": "bool",
          "name": "isVerified",
          "type": "bool"
        },
        {
          "internalType": "bool",
          "name": "isFlagged",
          "type": "bool"
        },
        {
          "internalType": "bool",
          "name": "requestedVerification",
          "type": "bool"
        }
      ],
      "stateMutability": "view",
      "type": "function"
    },
    {
      "inputs": [
        {
          "internalType": "string",
          "name": "",
          "type": "string"
        }
      ],
      "name": "products",
      "outputs": [
        {
          "components": [
            {
              "internalType": "string",
              "name": "name",
              "type": "string"
            },
            {
              "internalType": "string",
              "name": "description",
              "type": "string"
            },
            {
              "internalType": "string",
              "name": "category",
              "type": "string"
            },
            {
              "internalType": "string",
              "name": "batchNumber",
              "type": "string"
            },
            {
              "internalType": "string",
              "name": "serialNumber",
              "type": "string"
            },
            {
              "internalType": "string",
              "name": "uniqueProductId",
              "type": "string"
            },
            {
              "internalType": "string",
              "name": "manufacturingDate",
              "type": "string"
            },
            {
              "internalType": "string",
              "name": "expiryDate",
              "type": "string"
            }
          ],
          "internalType": "struct ProductRegistry.ProductDetails",
          "name": "details",
          "type": "tuple"
        },
        {
          "internalType": "address",
          "name": "manufacturerAddress",
          "type": "address"
        },
        {
          "internalType": "bool",
          "name": "isRegistered",
          "type": "bool"
        },
        {
          "internalType": "uint256",
          "name": "scanCount",
          "type": "uint256"
        }
      ],
      "stateMutability": "view",
      "type": "function"
    },
    {
      "inputs": [
        {
          "internalType": "string",
          "name": "_name",
          "type": "string"
        },
        {
          "internalType": "string",
          "name": "_manufacturingLocation",
          "type": "string"
        },
        {
          "internalType": "string",
          "name": "_email",
          "type": "string"
        },
        {
          "internalType": "string",
          "name": "_phone",
          "type": "string"
        },
        {
          "internalType": "string",
          "name": "_facilityAddress",
          "type": "string"
        }
      ],
      "name": "registerManufacturer",
      "outputs": [],
      "stateMutability": "nonpayable",
      "type": "function"
    },
    {
      "inputs": [
        {
          "components": [
            {
              "internalType": "string",
              "name": "name",
              "type": "string"
            },
            {
              "internalType": "string",
              "name": "description",
              "type": "string"
            },
            {
              "internalType": "string",
              "name": "category",
              "type": "string"
            },
            {
              "internalType": "string",
              "name": "batchNumber",
              "type": "string"
            },
            {
              "internalType": "string",
              "name": "serialNumber",
              "type": "string"
            },
            {
              "internalType": "string",
              "name": "uniqueProductId",
              "type": "string"
            },
            {
              "internalType": "string",
              "name": "manufacturingDate",
              "type": "string"
            },
            {
              "internalType": "string",
              "name": "expiryDate",
              "type": "string"
            }
          ],
          "internalType": "struct ProductRegistry.ProductDetails",
          "name": "productDetails",
          "type": "tuple"
        }
      ],
      "name": "registerProduct",
      "outputs": [],
      "stateMutability": "nonpayable",
      "type": "function"
    },
    {
      "inputs": [],
      "name": "requestVerification",
      "outputs": [],
      "stateMutability": "nonpayable",
      "type": "function"
    },
    {
      "inputs": [
        {
          "internalType": "string",
          "name": "productId",
          "type": "string"
        }
      ],
      "name": "scanProduct",
      "outputs": [],
      "stateMutability": "nonpayable",
      "type": "function"
    },
    {
      "inputs": [
        {
          "internalType": "address",
          "name": "manufacturerAddr",
          "type": "address"
        },
        {
          "internalType": "bool",
          "name": "status",
          "type": "bool"
        }
      ],
      "name": "verifyManufacturer",
      "outputs": [],
      "stateMutability": "nonpayable",
      "type": "function"
    }
  ],
  "bytecode": "0x6080604052348015600f57600080fd5b50336000806101000a81548173ffffffffffffffffffffffffffffffffffffffff021916908373ffffffffffffffffffffffffffffffffffffffff160217905550613e0a8061005f6000396000f3fe608060405234801561001057600080fd5b50600436106101005760003560e01c80636b5eb09c11610097578063ddba07a411610066578063ddba07a4146102a7578063dde1bbcf146102c5578063f7e7ce4d146102f5578063f851a4401461031157610100565b80636b5eb09c146102025780637382e17a1461023a578063c59d48471461026a578063cdb326fc1461028b57610100565b80630b9df443116100d35780630b9df4431461019057806338617c08146101ac578063507e9c2d146101c8578063655de672146101e457610100565b8063016e8dca146101055780630186a4231461013557806302ee3a521461016857806307ec303914610186575b600080fd5b61011f600480360381019061011a91906127c3565b61032f565b60405161012c9190612831565b60405180910390f35b61014f600480360381019061014a9190612992565b61036e565b60405161015f9493929190612b65565b60405180910390f35b61017061087c565b60405161017d9190612de4565b60405180910390f35b61018e610e84565b005b6101aa60048036038101906101a59190612e06565b610f8c565b005b6101c660048036038101906101c191906130c1565b611224565b005b6101e260048036038101906101dd9190613162565b6115a7565b005b6101ec61175d565b6040516101f99190613251565b60405180910390f35b61021c60048036038101906102179190613273565b6119c1565b604051610231999897969594939291906132ea565b60405180910390f35b610254600480360381019061024f9190613273565b611cde565b604051610261919061345c565b60405180910390f35b610272611df6565b604051610282949392919061347e565b60405180910390f35b6102a560048036038101906102a09190613162565b612297565b005b6102af6124af565b6040516102bc9190613251565b60405180910390f35b6102df60048036038101906102da91906127c3565b61253d565b6040516102ec91906134c3565b60405180910390f35b61030f600480360381019061030a9190612992565b6125e9565b005b6103196126ca565b6040516103269190612831565b60405180910390f35b6004818154811061033f57600080fd5b906000526020600020016000915054906101000a900473ffffffffffffffffffffffffffffffffffffffff1681565b60028180516020810182018051848252602083016020850120818352809550505050505060009150905080600001604051806101000160405290816000820180546103b890613514565b80601f01602080910402602001604051908101604052809291908181526020018280546103e490613514565b80156104315780601f1061040657610100808354040283529160200191610431565b820191906000526020600020905b81548152906001019060200180831161041457829003601f168201915b5050505050815260200160018201805461044a90613514565b80601f016020809104026020016040519081016040528092919081815260200182805461047690613514565b80156104c35780601f10610498576101008083540402835291602001916104c3565b820191906000526020600020905b8154815290600101906020018083116104a657829003601f168201915b505050505081526020016002820180546104dc90613514565b80601f016020809104026020016040519081016040528092919081815260200182805461050890613514565b80156105555780601f1061052a57610100808354040283529160200191610555565b820191906000526020600020905b81548152906001019060200180831161053857829003601f168201915b5050505050815260200160038201805461056e90613514565b80601f016020809104026020016040519081016040528092919081815260200182805461059a90613514565b80156105e75780601f106105bc576101008083540402835291602001916105e7565b820191906000526020600020905b8154815290600101906020018083116105ca57829003601f168201915b5050505050815260200160048201805461060090613514565b80601f016020809104026020016040519081016040528092919081815260200182805461062c90613514565b80156106795780601f1061064e57610100808354040283529160200191610679565b820191906000526020600020905b81548152906001019060200180831161065c57829003601f168201915b5050505050815260200160058201805461069290613514565b80601f01602080910402602001604051908101604052809291908181526020018280546106be90613514565b801561070b5780601f106106e05761010080835404028352916020019161070b565b820191906000526020600020905b8154815290600101906020018083116106ee57829003601f168201915b5050505050815260200160068201805461072490613514565b80601f016020809104026020016040519081016040528092919081815260200182805461075090613514565b801561079d5780601f106107725761010080835404028352916020019161079d565b820191906000526020600020905b81548152906001019060200180831161078057829003601f168201915b505050505081526020016007820180546107b690613514565b80601f01602080910402602001604051908101604052809291908181526020018280546107e290613514565b801561082f5780601f106108045761010080835404028352916020019161082f565b820191906000526020600020905b81548152906001019060200180831161081257829003601f168201915b505050505081525050908060080160009054906101000a900473ffffffffffffffffffffffffffffffffffffffff16908060080160149054906101000a900460ff16908060090154905084565b6060600060058054905067ffffffffffffffff81111561089f5761089e612867565b5b6040519080825280602002602001820160405280156108d857816020015b6108c56126ee565b8152602001906001900390816108bd5790505b50905060005b600580549050811015610e7c5760026005828154811061090157610900613545565b5b906000526020600020016040516109189190613617565b9081526020016040518091039020604051806080016040529081600082016040518061010001604052908160008201805461095290613514565b80601f016020809104026020016040519081016040528092919081815260200182805461097e90613514565b80156109cb5780601f106109a0576101008083540402835291602001916109cb565b820191906000526020600020905b8154815290600101906020018083116109ae57829003601f168201915b505050505081526020016001820180546109e490613514565b80601f0160208091040260200160405190810160405280929190818152602001828054610a1090613514565b8015610a5d5780601f10610a3257610100808354040283529160200191610a5d565b820191906000526020600020905b815481529060010190602001808311610a4057829003601f168201915b50505050508152602001600282018054610a7690613514565b80601f0160208091040260200160405190810160405280929190818152602001828054610aa290613514565b8015610aef5780601f10610ac457610100808354040283529160200191610aef565b820191906000526020600020905b815481529060010190602001808311610ad257829003601f168201915b50505050508152602001600382018054610b0890613514565b80601f0160208091040260200160405190810160405280929190818152602001828054610b3490613514565b8015610b815780601f10610b5657610100808354040283529160200191610b81565b820191906000526020600020905b815481529060010190602001808311610b6457829003601f168201915b50505050508152602001600482018054610b9a90613514565b80601f0160208091040260200160405190810160405280929190818152602001828054610bc690613514565b8015610c135780601f10610be857610100808354040283529160200191610c13565b820191906000526020600020905b815481529060010190602001808311610bf657829003601f168201915b50505050508152602001600582018054610c2c90613514565b80601f0160208091040260200160405190810160405280929190818152602001828054610c5890613514565b8015610ca55780601f10610c7a57610100808354040283529160200191610ca5565b820191906000526020600020905b815481529060010190602001808311610c8857829003601f168201915b50505050508152602001600682018054610cbe90613514565b80601f0160208091040260200160405190810160405280929190818152602001828054610cea90613514565b8015610d375780601f10610d0c57610100808354040283529160200191610d37565b820191906000526020600020905b815481529060010190602001808311610d1a57829003601f168201915b50505050508152602001600782018054610d5090613514565b80601f0160208091040260200160405190810160405280929190818152602001828054610d7c90613514565b8015610dc95780601f10610d9e57610100808354040283529160200191610dc9565b820191906000526020600020905b815481529060010190602001808311610dac57829003601f168201915b50505050508152505081526020016008820160009054906101000a900473ffffffffffffffffffffffffffffffffffffffff1673ffffffffffffffffffffffffffffffffffffffff1673ffffffffffffffffffffffffffffffffffffffff1681526020016008820160149054906101000a900460ff16151515158152602001600982015481525050828281518110610e6457610e63613545565b5b602002602001018190525080806001019150506108de565b508091505090565b6000600160003373ffffffffffffffffffffffffffffffffffffffff1673ffffffffffffffffffffffffffffffffffffffff16815260200190815260200160002090506000816000018054610ed890613514565b905011610f1a576040517f08c379a0000000000000000000000000000000000000000000000000000000008152600401610f119061367a565b60405180910390fd5b8060060160009054906101000a900460ff1615610f6c576040517f08c379a0000000000000000000000000000000000000000000000000000000008152600401610f63906136e6565b60405180910390fd5b60018160060160026101000a81548160ff02191690831515021790555050565b6000600160003373ffffffffffffffffffffffffffffffffffffffff1673ffffffffffffffffffffffffffffffffffffffff1681526020019081526020016000206000018054610fdb90613514565b90501461101d576040517f08c379a000000000000000000000000000000000000000000000000000000000815260040161101490613752565b60405180910390fd5b60405180610120016040528086815260200185815260200184815260200183815260200182815260200142815260200160001515815260200160001515815260200160001515815250600160003373ffffffffffffffffffffffffffffffffffffffff1673ffffffffffffffffffffffffffffffffffffffff16815260200190815260200160002060008201518160000190816110ba9190613909565b5060208201518160010190816110d09190613909565b5060408201518160020190816110e69190613909565b5060608201518160030190816110fc9190613909565b5060808201518160040190816111129190613909565b5060a0820151816005015560c08201518160060160006101000a81548160ff02191690831515021790555060e08201518160060160016101000a81548160ff0219169083151502179055506101008201518160060160026101000a81548160ff0219169083151502179055509050506004339080600181540180825580915050600190039060005260206000200160009091909190916101000a81548173ffffffffffffffffffffffffffffffffffffffff021916908373ffffffffffffffffffffffffffffffffffffffff1602179055507f3980e1c29ecf2bdfce4e2793ed6efcc338cb00238d58c95de9000480acc0caef33866040516112159291906139db565b60405180910390a15050505050565b600160003373ffffffffffffffffffffffffffffffffffffffff1673ffffffffffffffffffffffffffffffffffffffff16815260200190815260200160002060060160009054906101000a900460ff166112b3576040517f08c379a00000000000000000000000000000000000000000000000000000000081526004016112aa90613a7d565b60405180910390fd5b60028160a001516040516112c79190613ace565b908152602001604051809103902060080160149054906101000a900460ff1615611326576040517f08c379a000000000000000000000000000000000000000000000000000000000815260040161131d90613b31565b60405180910390fd5b60405180608001604052808281526020013373ffffffffffffffffffffffffffffffffffffffff168152602001600115158152602001600081525060028260a001516040516113759190613ace565b908152602001604051809103902060008201518160000160008201518160000190816113a19190613909565b5060208201518160010190816113b79190613909565b5060408201518160020190816113cd9190613909565b5060608201518160030190816113e39190613909565b5060808201518160040190816113f99190613909565b5060a082015181600501908161140f9190613909565b5060c08201518160060190816114259190613909565b5060e082015181600701908161143b9190613909565b50505060208201518160080160006101000a81548173ffffffffffffffffffffffffffffffffffffffff021916908373ffffffffffffffffffffffffffffffffffffffff16021790555060408201518160080160146101000a81548160ff02191690831515021790555060608201518160090155905050600360003373ffffffffffffffffffffffffffffffffffffffff1673ffffffffffffffffffffffffffffffffffffffff1681526020019081526020016000208160a001519080600181540180825580915050600190039060005260206000200160009091909190915090816115279190613909565b5060058160a001519080600181540180825580915050600190039060005260206000200160009091909190915090816115609190613909565b507fdc62d3d2ce3bcf04d8c0c001c3d1b9b793bc83b6a8d7de0cb99d77b4504cb5af8160a0015182600001513360405161159c93929190613b51565b60405180910390a150565b60008054906101000a900473ffffffffffffffffffffffffffffffffffffffff1673ffffffffffffffffffffffffffffffffffffffff163373ffffffffffffffffffffffffffffffffffffffff1614611635576040517f08c379a000000000000000000000000000000000000000000000000000000000815260040161162c90613c08565b60405180910390fd5b6000600160008473ffffffffffffffffffffffffffffffffffffffff1673ffffffffffffffffffffffffffffffffffffffff168152602001908152602001600020600001805461168490613514565b9050116116c6576040517f08c379a00000000000000000000000000000000000000000000000000000000081526004016116bd90613c74565b60405180910390fd5b80600160008473ffffffffffffffffffffffffffffffffffffffff1673ffffffffffffffffffffffffffffffffffffffff16815260200190815260200160002060060160016101000a81548160ff0219169083151502179055507f2ac14cd5266ad9fdb145986c9f1838f9ea61f14b20c44c181501498b211e05498282604051611751929190613c94565b60405180910390a15050565b60606000805b60048054905081101561181f57600160006004838154811061178857611787613545565b5b9060005260206000200160009054906101000a900473ffffffffffffffffffffffffffffffffffffffff1673ffffffffffffffffffffffffffffffffffffffff1673ffffffffffffffffffffffffffffffffffffffff16815260200190815260200160002060060160029054906101000a900460ff161561181257818061180e90613cec565b9250505b8080600101915050611763565b5060008167ffffffffffffffff81111561183c5761183b612867565b5b60405190808252806020026020018201604052801561186a5781602001602082028036833780820191505090505b5090506000805b6004805490508110156119b757600160006004838154811061189657611895613545565b5b9060005260206000200160009054906101000a900473ffffffffffffffffffffffffffffffffffffffff1673ffffffffffffffffffffffffffffffffffffffff1673ffffffffffffffffffffffffffffffffffffffff16815260200190815260200160002060060160029054906101000a900460ff16156119aa576004818154811061192557611924613545565b5b9060005260206000200160009054906101000a900473ffffffffffffffffffffffffffffffffffffffff1683838061195c90613cec565b94508151811061196f5761196e613545565b5b602002602001019073ffffffffffffffffffffffffffffffffffffffff16908173ffffffffffffffffffffffffffffffffffffffff16815250505b8080600101915050611871565b5081935050505090565b60016020528060005260406000206000915090508060000180546119e490613514565b80601f0160208091040260200160405190810160405280929190818152602001828054611a1090613514565b8015611a5d5780601f10611a3257610100808354040283529160200191611a5d565b820191906000526020600020905b815481529060010190602001808311611a4057829003601f168201915b505050505090806001018054611a7290613514565b80601f0160208091040260200160405190810160405280929190818152602001828054611a9e90613514565b8015611aeb5780601f10611ac057610100808354040283529160200191611aeb565b820191906000526020600020905b815481529060010190602001808311611ace57829003601f168201915b505050505090806002018054611b0090613514565b80601f0160208091040260200160405190810160405280929190818152602001828054611b2c90613514565b8015611b795780601f10611b4e57610100808354040283529160200191611b79565b820191906000526020600020905b815481529060010190602001808311611b5c57829003601f168201915b505050505090806003018054611b8e90613514565b80601f0160208091040260200160405190810160405280929190818152602001828054611bba90613514565b8015611c075780601f10611bdc57610100808354040283529160200191611c07565b820191906000526020600020905b815481529060010190602001808311611bea57829003601f168201915b505050505090806004018054611c1c90613514565b80601f0160208091040260200160405190810160405280929190818152602001828054611c4890613514565b8015611c955780601f10611c6a57610100808354040283529160200191611c95565b820191906000526020600020905b815481529060010190602001808311611c7857829003601f168201915b5050505050908060050154908060060160009054906101000a900460ff16908060060160019054906101000a900460ff16908060060160029054906101000a900460ff16905089565b6060600360008373ffffffffffffffffffffffffffffffffffffffff1673ffffffffffffffffffffffffffffffffffffffff168152602001908152602001600020805480602002602001604051908101604052809291908181526020016000905b82821015611deb578382906000526020600020018054611d5e90613514565b80601f0160208091040260200160405190810160405280929190818152602001828054611d8a90613514565b8015611dd75780601f10611dac57610100808354040283529160200191611dd7565b820191906000526020600020905b815481529060010190602001808311611dba57829003601f168201915b505050505081526020019060010190611d3f565b505050509050919050565b6000806000806000806000805b6004805490508110156122125760006001600060048481548110611e2a57611e29613545565b5b9060005260206000200160009054906101000a900473ffffffffffffffffffffffffffffffffffffffff1673ffffffffffffffffffffffffffffffffffffffff1673ffffffffffffffffffffffffffffffffffffffff16815260200190815260200160002060405180610120016040529081600082018054611eab90613514565b80601f0160208091040260200160405190810160405280929190818152602001828054611ed790613514565b8015611f245780601f10611ef957610100808354040283529160200191611f24565b820191906000526020600020905b815481529060010190602001808311611f0757829003601f168201915b50505050508152602001600182018054611f3d90613514565b80601f0160208091040260200160405190810160405280929190818152602001828054611f6990613514565b8015611fb65780601f10611f8b57610100808354040283529160200191611fb6565b820191906000526020600020905b815481529060010190602001808311611f9957829003601f168201915b50505050508152602001600282018054611fcf90613514565b80601f0160208091040260200160405190810160405280929190818152602001828054611ffb90613514565b80156120485780601f1061201d57610100808354040283529160200191612048565b820191906000526020600020905b81548152906001019060200180831161202b57829003601f168201915b5050505050815260200160038201805461206190613514565b80601f016020809104026020016040519081016040528092919081815260200182805461208d90613514565b80156120da5780601f106120af576101008083540402835291602001916120da565b820191906000526020600020905b8154815290600101906020018083116120bd57829003601f168201915b505050505081526020016004820180546120f390613514565b80601f016020809104026020016040519081016040528092919081815260200182805461211f90613514565b801561216c5780601f106121415761010080835404028352916020019161216c565b820191906000526020600020905b81548152906001019060200180831161214f57829003601f168201915b50505050508152602001600582015481526020016006820160009054906101000a900460ff161515151581526020016006820160019054906101000a900460ff161515151581526020016006820160029054906101000a900460ff16151515158152505090508060c00151156121eb5784806121e790613cec565b9550505b8060e001511561220457838061220090613cec565b9450505b508080600101915050611e03565b5060005b60058054905081101561227c5760026005828154811061223957612238613545565b5b906000526020600020016040516122509190613617565b9081526020016040518091039020600901548261226d9190613d34565b91508080600101915050612216565b50600480549050838383965096509650965050505090919293565b60008054906101000a900473ffffffffffffffffffffffffffffffffffffffff1673ffffffffffffffffffffffffffffffffffffffff163373ffffffffffffffffffffffffffffffffffffffff1614612325576040517f08c379a000000000000000000000000000000000000000000000000000000000815260040161231c90613c08565b60405180910390fd5b6000600160008473ffffffffffffffffffffffffffffffffffffffff1673ffffffffffffffffffffffffffffffffffffffff168152602001908152602001600020600001805461237490613514565b9050116123b6576040517f08c379a00000000000000000000000000000000000000000000000000000000081526004016123ad90613c74565b60405180910390fd5b80600160008473ffffffffffffffffffffffffffffffffffffffff1673ffffffffffffffffffffffffffffffffffffffff16815260200190815260200160002060060160006101000a81548160ff0219169083151502179055508015612472576000600160008473ffffffffffffffffffffffffffffffffffffffff1673ffffffffffffffffffffffffffffffffffffffff16815260200190815260200160002060060160026101000a81548160ff0219169083151502179055505b7f03457000f0ce5fea2e2c122d921bfdb1b2bd2a6a72d22abeb1944cfca45b7d2482826040516124a3929190613c94565b60405180910390a15050565b6060600480548060200260200160405190810160405280929190818152602001828054801561253357602002820191906000526020600020905b8160009054906101000a900473ffffffffffffffffffffffffffffffffffffffff1673ffffffffffffffffffffffffffffffffffffffff16815260200190600101908083116124e9575b5050505050905090565b6005818154811061254d57600080fd5b90600052602060002001600091509050805461256890613514565b80601f016020809104026020016040519081016040528092919081815260200182805461259490613514565b80156125e15780601f106125b6576101008083540402835291602001916125e1565b820191906000526020600020905b8154815290600101906020018083116125c457829003601f168201915b505050505081565b6002816040516125f99190613ace565b908152602001604051809103902060080160149054906101000a900460ff16612657576040517f08c379a000000000000000000000000000000000000000000000000000000000815260040161264e90613db4565b60405180910390fd5b60016002826040516126699190613ace565b908152602001604051809103902060090160008282546126899190613d34565b925050819055507f8f034846dd6e05fd4eb9cc99c93dbfd33d743051ff62ba232c3e2051e5655163816040516126bf91906134c3565b60405180910390a150565b60008054906101000a900473ffffffffffffffffffffffffffffffffffffffff1681565b6040518060800160405280612701612734565b8152602001600073ffffffffffffffffffffffffffffffffffffffff168152602001600015158152602001600081525090565b60405180610100016040528060608152602001606081526020016060815260200160608152602001606081526020016060815260200160608152602001606081525090565b6000604051905090565b600080fd5b600080fd5b6000819050919050565b6127a08161278d565b81146127ab57600080fd5b50565b6000813590506127bd81612797565b92915050565b6000602082840312156127d9576127d8612783565b5b60006127e7848285016127ae565b91505092915050565b600073ffffffffffffffffffffffffffffffffffffffff82169050919050565b600061281b826127f0565b9050919050565b61282b81612810565b82525050565b60006020820190506128466000830184612822565b92915050565b600080fd5b600080fd5b6000601f19601f8301169050919050565b7f4e487b7100000000000000000000000000000000000000000000000000000000600052604160045260246000fd5b61289f82612856565b810181811067ffffffffffffffff821117156128be576128bd612867565b5b80604052505050565b60006128d1612779565b90506128dd8282612896565b919050565b600067ffffffffffffffff8211156128fd576128fc612867565b5b61290682612856565b9050602081019050919050565b82818337600083830152505050565b6000612935612930846128e2565b6128c7565b90508281526020810184848401111561295157612950612851565b5b61295c848285612913565b509392505050565b600082601f8301126129795761297861284c565b5b8135612989848260208601612922565b91505092915050565b6000602082840312156129a8576129a7612783565b5b600082013567ffffffffffffffff8111156129c6576129c5612788565b5b6129d284828501612964565b91505092915050565b600081519050919050565b600082825260208201905092915050565b60005b83811015612a155780820151818401526020810190506129fa565b60008484015250505050565b6000612a2c826129db565b612a3681856129e6565b9350612a468185602086016129f7565b612a4f81612856565b840191505092915050565b6000610100830160008301518482036000860152612a788282612a21565b91505060208301518482036020860152612a928282612a21565b91505060408301518482036040860152612aac8282612a21565b91505060608301518482036060860152612ac68282612a21565b91505060808301518482036080860152612ae08282612a21565b91505060a083015184820360a0860152612afa8282612a21565b91505060c083015184820360c0860152612b148282612a21565b91505060e083015184820360e0860152612b2e8282612a21565b9150508091505092915050565b60008115159050919050565b612b5081612b3b565b82525050565b612b5f8161278d565b82525050565b60006080820190508181036000830152612b7f8187612a5a565b9050612b8e6020830186612822565b612b9b6040830185612b47565b612ba86060830184612b56565b95945050505050565b600081519050919050565b600082825260208201905092915050565b6000819050602082019050919050565b6000610100830160008301518482036000860152612bfb8282612a21565b91505060208301518482036020860152612c158282612a21565b91505060408301518482036040860152612c2f8282612a21565b91505060608301518482036060860152612c498282612a21565b91505060808301518482036080860152612c638282612a21565b91505060a083015184820360a0860152612c7d8282612a21565b91505060c083015184820360c0860152612c978282612a21565b91505060e083015184820360e0860152612cb18282612a21565b9150508091505092915050565b612cc781612810565b82525050565b612cd681612b3b565b82525050565b612ce58161278d565b82525050565b60006080830160008301518482036000860152612d088282612bdd565b9150506020830151612d1d6020860182612cbe565b506040830151612d306040860182612ccd565b506060830151612d436060860182612cdc565b508091505092915050565b6000612d5a8383612ceb565b905092915050565b6000602082019050919050565b6000612d7a82612bb1565b612d848185612bbc565b935083602082028501612d9685612bcd565b8060005b85811015612dd25784840389528151612db38582612d4e565b9450612dbe83612d62565b925060208a01995050600181019050612d9a565b50829750879550505050505092915050565b60006020820190508181036000830152612dfe8184612d6f565b905092915050565b600080600080600060a08688031215612e2257612e21612783565b5b600086013567ffffffffffffffff811115612e4057612e3f612788565b5b612e4c88828901612964565b955050602086013567ffffffffffffffff811115612e6d57612e6c612788565b5b612e7988828901612964565b945050604086013567ffffffffffffffff811115612e9a57612e99612788565b5b612ea688828901612964565b935050606086013567ffffffffffffffff811115612ec757612ec6612788565b5b612ed388828901612964565b925050608086013567ffffffffffffffff811115612ef457612ef3612788565b5b612f0088828901612964565b9150509295509295909350565b600080fd5b600080fd5b60006101008284031215612f2e57612f2d612f0d565b5b612f396101006128c7565b9050600082013567ffffffffffffffff811115612f5957612f58612f12565b5b612f6584828501612964565b600083015250602082013567ffffffffffffffff811115612f8957612f88612f12565b5b612f9584828501612964565b602083015250604082013567ffffffffffffffff811115612fb957612fb8612f12565b5b612fc584828501612964565b604083015250606082013567ffffffffffffffff811115612fe957612fe8612f12565b5b612ff584828501612964565b606083015250608082013567ffffffffffffffff81111561301957613018612f12565b5b61302584828501612964565b60808301525060a082013567ffffffffffffffff81111561304957613048612f12565b5b61305584828501612964565b60a08301525060c082013567ffffffffffffffff81111561307957613078612f12565b5b61308584828501612964565b60c08301525060e082013567ffffffffffffffff8111156130a9576130a8612f12565b5b6130b584828501612964565b60e08301525092915050565b6000602082840312156130d7576130d6612783565b5b600082013567ffffffffffffffff8111156130f5576130f4612788565b5b61310184828501612f17565b91505092915050565b61311381612810565b811461311e57600080fd5b50565b6000813590506131308161310a565b92915050565b61313f81612b3b565b811461314a57600080fd5b50565b60008135905061315c81613136565b92915050565b6000806040838503121561317957613178612783565b5b600061318785828601613121565b92505060206131988582860161314d565b9150509250929050565b600081519050919050565b600082825260208201905092915050565b6000819050602082019050919050565b60006131da8383612cbe565b60208301905092915050565b6000602082019050919050565b60006131fe826131a2565b61320881856131ad565b9350613213836131be565b8060005b8381101561324457815161322b88826131ce565b9750613236836131e6565b925050600181019050613217565b5085935050505092915050565b6000602082019050818103600083015261326b81846131f3565b905092915050565b60006020828403121561328957613288612783565b5b600061329784828501613121565b91505092915050565b600082825260208201905092915050565b60006132bc826129db565b6132c681856132a0565b93506132d68185602086016129f7565b6132df81612856565b840191505092915050565b6000610120820190508181036000830152613305818c6132b1565b90508181036020830152613319818b6132b1565b9050818103604083015261332d818a6132b1565b9050818103606083015261334181896132b1565b9050818103608083015261335581886132b1565b905061336460a0830187612b56565b61337160c0830186612b47565b61337e60e0830185612b47565b61338c610100830184612b47565b9a9950505050505050505050565b600081519050919050565b600082825260208201905092915050565b6000819050602082019050919050565b60006133d28383612a21565b905092915050565b6000602082019050919050565b60006133f28261339a565b6133fc81856133a5565b93508360208202850161340e856133b6565b8060005b8581101561344a578484038952815161342b85826133c6565b9450613436836133da565b925060208a01995050600181019050613412565b50829750879550505050505092915050565b6000602082019050818103600083015261347681846133e7565b905092915050565b60006080820190506134936000830187612b56565b6134a06020830186612b56565b6134ad6040830185612b56565b6134ba6060830184612b56565b95945050505050565b600060208201905081810360008301526134dd81846132b1565b905092915050565b7f4e487b7100000000000000000000000000000000000000000000000000000000600052602260045260246000fd5b6000600282049050600182168061352c57607f821691505b60208210810361353f5761353e6134e5565b5b50919050565b7f4e487b7100000000000000000000000000000000000000000000000000000000600052603260045260246000fd5b600081905092915050565b60008190508160005260206000209050919050565b600081546135a181613514565b6135ab8186613574565b945060018216600081146135c657600181146135db5761360e565b60ff198316865281151582028601935061360e565b6135e48561357f565b60005b83811015613606578154818901526001820191506020810190506135e7565b838801955050505b50505092915050565b60006136238284613594565b915081905092915050565b7f4d616e756661637475726572206e6f7420726567697374657265640000000000600082015250565b6000613664601b836132a0565b915061366f8261362e565b602082019050919050565b6000602082019050818103600083015261369381613657565b9050919050565b7f416c726561647920766572696669656400000000000000000000000000000000600082015250565b60006136d06010836132a0565b91506136db8261369a565b602082019050919050565b600060208201905081810360008301526136ff816136c3565b9050919050565b7f416c726561647920726567697374657265640000000000000000000000000000600082015250565b600061373c6012836132a0565b915061374782613706565b602082019050919050565b6000602082019050818103600083015261376b8161372f565b9050919050565b60006020601f8301049050919050565b600082821b905092915050565b6000600883026137bf7fffffffffffffffffffffffffffffffffffffffffffffffffffffffffffffffff82613782565b6137c98683613782565b95508019841693508086168417925050509392505050565b6000819050919050565b60006138066138016137fc8461278d565b6137e1565b61278d565b9050919050565b6000819050919050565b613820836137eb565b61383461382c8261380d565b84845461378f565b825550505050565b600090565b61384961383c565b613854818484613817565b505050565b5b818110156138785761386d600082613841565b60018101905061385a565b5050565b601f8211156138bd5761388e8161357f565b61389784613772565b810160208510156138a6578190505b6138ba6138b285613772565b830182613859565b50505b505050565b600082821c905092915050565b60006138e0600019846008026138c2565b1980831691505092915050565b60006138f983836138cf565b9150826002028217905092915050565b613912826129db565b67ffffffffffffffff81111561392b5761392a612867565b5b6139358254613514565b61394082828561387c565b600060209050601f8311600181146139735760008415613961578287015190505b61396b85826138ed565b8655506139d3565b601f1984166139818661357f565b60005b828110156139a957848901518255600182019150602085019450602081019050613984565b868310156139c657848901516139c2601f8916826138cf565b8355505b6001600288020188555050505b505050505050565b60006040820190506139f06000830185612822565b8181036020830152613a0281846132b1565b90509392505050565b7f4f6e6c79207665726966696564206d616e756661637475726572732063616e2060008201527f72656769737465722070726f6475637473000000000000000000000000000000602082015250565b6000613a676031836132a0565b9150613a7282613a0b565b604082019050919050565b60006020820190508181036000830152613a9681613a5a565b9050919050565b6000613aa8826129db565b613ab28185613574565b9350613ac28185602086016129f7565b80840191505092915050565b6000613ada8284613a9d565b915081905092915050565b7f50726f6475637420616c72656164792065786973747300000000000000000000600082015250565b6000613b1b6016836132a0565b9150613b2682613ae5565b602082019050919050565b60006020820190508181036000830152613b4a81613b0e565b9050919050565b60006060820190508181036000830152613b6b81866132b1565b90508181036020830152613b7f81856132b1565b9050613b8e6040830184612822565b949350505050565b7f4f6e6c792061646d696e2063616e20706572666f726d2074686973206163746960008201527f6f6e000000000000000000000000000000000000000000000000000000000000602082015250565b6000613bf26022836132a0565b9150613bfd82613b96565b604082019050919050565b60006020820190508181036000830152613c2181613be5565b9050919050565b7f4d616e756661637475726572206e6f7420666f756e6400000000000000000000600082015250565b6000613c5e6016836132a0565b9150613c6982613c28565b602082019050919050565b60006020820190508181036000830152613c8d81613c51565b9050919050565b6000604082019050613ca96000830185612822565b613cb66020830184612b47565b9392505050565b7f4e487b7100000000000000000000000000000000000000000000000000000000600052601160045260246000fd5b6000613cf78261278d565b91507fffffffffffffffffffffffffffffffffffffffffffffffffffffffffffffffff8203613d2957613d28613cbd565b5b600182019050919050565b6000613d3f8261278d565b9150613d4a8361278d565b9250828201905080821115613d6257613d61613cbd565b5b92915050565b7f50726f64756374206e6f7420666f756e64000000000000000000000000000000600082015250565b6000613d9e6011836132a0565b9150613da982613d68565b602082019050919050565b60006020820190508181036000830152613dcd81613d91565b905091905056fea2646970667358221220c3ad1bb4535f16fad550cd67bb6da9747c016ab57f1eebfc3d45aa004978dc5164736f6c634300081c0033",
  "linkReferences": {},
  "deployedLinkReferences": {}
}